{
  "address": "0x5FbDB2315678afecb367f032d93F642f64180aa3",
  "abi": [
    {
      "anonymous": false,
      "inputs": [
        {
          "indexed": false,
          "internalType": "string",
          "name": "name",
          "type": "string"
        },
        {
          "indexed": false,
          "internalType": "bytes32",
          "name": "id",
          "type": "bytes32"
        }
      ],
      "name": "GroupCreated",
      "type": "event"
    },
    {
      "anonymous": false,
      "inputs": [
        {
          "indexed": false,
          "internalType": "bytes32",
          "name": "groupId",
          "type": "bytes32"
        },
        {
          "indexed": false,
          "internalType": "address",
          "name": "memberAddress",
          "type": "address"
        },
        {
          "indexed": false,
          "internalType": "string",
          "name": "nickname",
          "type": "string"
        }
      ],
      "name": "MemberInvited",
      "type": "event"
    },
    {
      "inputs": [
        {
          "internalType": "string",
          "name": "groupName",
          "type": "string"
        },
        {
          "internalType": "string",
          "name": "nickname",
          "type": "string"
        }
      ],
      "name": "createGroup",
      "outputs": [],
      "stateMutability": "nonpayable",
      "type": "function"
    },
    {
      "inputs": [
        {
          "internalType": "address",
          "name": "memberAddress",
          "type": "address"
        },
        {
          "internalType": "string",
          "name": "memberNickname",
          "type": "string"
        },
        {
          "internalType": "bytes32",
          "name": "groupId",
          "type": "bytes32"
        }
      ],
      "name": "inviteMember",
      "outputs": [],
      "stateMutability": "nonpayable",
      "type": "function"
    },
    {
      "inputs": [
        {
          "internalType": "bytes32",
          "name": "groupId",
          "type": "bytes32"
        },
        {
          "internalType": "address",
          "name": "member",
          "type": "address"
        }
      ],
      "name": "isMember",
      "outputs": [
        {
          "internalType": "bool",
          "name": "",
          "type": "bool"
        }
      ],
      "stateMutability": "view",
      "type": "function"
    },
    {
      "inputs": [
        {
          "internalType": "address",
          "name": "member",
          "type": "address"
        }
      ],
      "name": "listGroupsForMember",
      "outputs": [
        {
          "components": [
            {
              "internalType": "bytes32",
              "name": "id",
              "type": "bytes32"
            },
            {
              "internalType": "string",
              "name": "name",
              "type": "string"
            }
          ],
          "internalType": "struct Beer4Crypto.Group[]",
          "name": "",
          "type": "tuple[]"
        }
      ],
      "stateMutability": "view",
      "type": "function"
    },
    {
      "inputs": [
        {
          "internalType": "bytes32",
          "name": "id",
          "type": "bytes32"
        }
      ],
      "name": "listMembersForGroup",
      "outputs": [
        {
          "components": [
            {
              "internalType": "address",
              "name": "memberAddress",
              "type": "address"
            },
            {
              "internalType": "string",
              "name": "nickname",
              "type": "string"
            }
          ],
          "internalType": "struct Beer4Crypto.Member[]",
          "name": "",
          "type": "tuple[]"
        }
      ],
      "stateMutability": "view",
      "type": "function"
    }
  ],
  "transactionHash": "0x5eba09c1691310c833134daf0b7fc67f224cd7e524f473b518f9903a2f6145b0",
  "args": [],
  "numDeployments": 1,
  "solcInputHash": "244557bd0ed54481bb140ce2a76e8ec6",
  "bytecode": "0x608060405234801561001057600080fd5b50610bef806100206000396000f3fe608060405234801561001057600080fd5b50600436106100575760003560e01c806310ad56b31461005c5780631e4a97dd146100845780634baa41281461009957806355fbf68a146100ac578063f8b8f340146100cc575b600080fd5b61006f61006a3660046106bf565b6100ec565b60405190151581526020015b60405180910390f35b61009761009236600461078e565b61025e565b005b6100976100a73660046107f2565b610386565b6100bf6100ba366004610849565b61048d565b60405161007b91906108bb565b6100df6100da36600461092f565b61059e565b60405161007b9190610948565b60008281526020818152604080832080548251818502810185019093528083528493849084015b828210156101ec576000848152602090819020604080518082019091526002850290910180546001600160a01b03168252600181018054929391929184019161015b906109b7565b80601f0160208091040260200160405190810160405280929190818152602001828054610187906109b7565b80156101d45780601f106101a9576101008083540402835291602001916101d4565b820191906000526020600020905b8154815290600101906020018083116101b757829003601f168201915b50505050508152505081526020019060010190610113565b50505050905060005b815181101561025157836001600160a01b031682828151811061021a5761021a6109f1565b6020026020010151600001516001600160a01b03160361023f57600192505050610258565b8061024981610a07565b9150506101f5565b5060009150505b92915050565b60008242434060405160200161027693929190610a2e565b60408051601f1981840301815282825280516020918201208383018352808452838201878152835180850185523380825281850189905260009081526001808652958120805480880182559082529490208651600290950201938455905191955092849291908201906102e99082610aa4565b505050600083815260208181526040822080546001808201835591845292829020845160029094020180546001600160a01b0319166001600160a01b03909416939093178355908301518392918201906103439082610aa4565b5050507f50032f83d3694b97a61f9796312b558744e9fb13361854acd23911fdce1f9a918584604051610377929190610b64565b60405180910390a15050505050565b8061039181336100ec565b6103ed5760405162461bcd60e51b815260206004820152602360248201527f4f6e6c79206d656d626572732063616e2063616c6c20746869732066756e637460448201526234b7b760e91b606482015260840160405180910390fd5b6040805180820182526001600160a01b0386811682526020808301878152600087815280835294852080546001808201835591875292909520845160029093020180546001600160a01b031916929093169190911782555191928392908201906104579082610aa4565b5050507f0d6a355f98d852081e35cdbc77eee1e345add65882b1f7d56eb12702e9621f5083868660405161037793929190610b86565b6001600160a01b0381166000908152600160209081526040808320805482518185028101850190935280835260609492939192909184015b82821015610593578382906000526020600020906002020160405180604001604052908160008201548152602001600182018054610502906109b7565b80601f016020809104026020016040519081016040528092919081815260200182805461052e906109b7565b801561057b5780601f106105505761010080835404028352916020019161057b565b820191906000526020600020905b81548152906001019060200180831161055e57829003601f168201915b505050505081525050815260200190600101906104c5565b505050509050919050565b600081815260208181526040808320805482518185028101850190935280835260609492939192909184015b82821015610593576000848152602090819020604080518082019091526002850290910180546001600160a01b031682526001810180549293919291840191610612906109b7565b80601f016020809104026020016040519081016040528092919081815260200182805461063e906109b7565b801561068b5780601f106106605761010080835404028352916020019161068b565b820191906000526020600020905b81548152906001019060200180831161066e57829003601f168201915b505050505081525050815260200190600101906105ca565b80356001600160a01b03811681146106ba57600080fd5b919050565b600080604083850312156106d257600080fd5b823591506106e2602084016106a3565b90509250929050565b634e487b7160e01b600052604160045260246000fd5b600082601f83011261071257600080fd5b813567ffffffffffffffff8082111561072d5761072d6106eb565b604051601f8301601f19908116603f01168101908282118183101715610755576107556106eb565b8160405283815286602085880101111561076e57600080fd5b836020870160208301376000602085830101528094505050505092915050565b600080604083850312156107a157600080fd5b823567ffffffffffffffff808211156107b957600080fd5b6107c586838701610701565b935060208501359150808211156107db57600080fd5b506107e885828601610701565b9150509250929050565b60008060006060848603121561080757600080fd5b610810846106a3565b9250602084013567ffffffffffffffff81111561082c57600080fd5b61083886828701610701565b925050604084013590509250925092565b60006020828403121561085b57600080fd5b610864826106a3565b9392505050565b60005b8381101561088657818101518382015260200161086e565b50506000910152565b600081518084526108a781602086016020860161086b565b601f01601f19169290920160200192915050565b60006020808301818452808551808352604092508286019150828160051b87010184880160005b8381101561092157888303603f1901855281518051845287015187840187905261090e8785018261088f565b95880195935050908601906001016108e2565b509098975050505050505050565b60006020828403121561094157600080fd5b5035919050565b60006020808301818452808551808352604092508286019150828160051b87010184880160005b8381101561092157888303603f19018552815180516001600160a01b031684528701518784018790526109a48785018261088f565b958801959350509086019060010161096f565b600181811c908216806109cb57607f821691505b6020821081036109eb57634e487b7160e01b600052602260045260246000fd5b50919050565b634e487b7160e01b600052603260045260246000fd5b600060018201610a2757634e487b7160e01b600052601160045260246000fd5b5060010190565b60008451610a4081846020890161086b565b91909101928352506020820152604001919050565b601f821115610a9f57600081815260208120601f850160051c81016020861015610a7c5750805b601f850160051c820191505b81811015610a9b57828155600101610a88565b5050505b505050565b815167ffffffffffffffff811115610abe57610abe6106eb565b610ad281610acc84546109b7565b84610a55565b602080601f831160018114610b075760008415610aef5750858301515b600019600386901b1c1916600185901b178555610a9b565b600085815260208120601f198616915b82811015610b3657888601518255948401946001909101908401610b17565b5085821015610b545787850151600019600388901b60f8161c191681555b5050505050600190811b01905550565b604081526000610b77604083018561088f565b90508260208301529392505050565b8381526001600160a01b0383166020820152606060408201819052600090610bb09083018461088f565b9594505050505056fea2646970667358221220c2974fdc032ff83f434066708fabb25a19481cc68ba9b7605faa154522d5c4bf64736f6c63430008130033",
  "devdoc": {
    "kind": "dev",
    "methods": {},
    "version": 1
  },
  "userdoc": {
    "kind": "user",
    "methods": {},
    "version": 1
  },
  "storageLayout": {
    "storage": [
      {
        "astId": 29,
        "contract": "contracts/Beer4Crypto.sol:Beer4Crypto",
        "label": "groupMembers",
        "offset": 0,
        "slot": "0",
        "type": "t_mapping(t_bytes32,t_array(t_struct(Member)23_storage)dyn_storage)"
      },
      {
        "astId": 35,
        "contract": "contracts/Beer4Crypto.sol:Beer4Crypto",
        "label": "memberGroups",
        "offset": 0,
        "slot": "1",
        "type": "t_mapping(t_address,t_array(t_struct(Group)18_storage)dyn_storage)"
      }
    ],
    "types": {
      "t_address": {
        "encoding": "inplace",
        "label": "address",
        "numberOfBytes": "20"
      },
      "t_array(t_struct(Group)18_storage)dyn_storage": {
        "base": "t_struct(Group)18_storage",
        "encoding": "dynamic_array",
        "label": "struct Beer4Crypto.Group[]",
        "numberOfBytes": "32"
      },
      "t_array(t_struct(Member)23_storage)dyn_storage": {
        "base": "t_struct(Member)23_storage",
        "encoding": "dynamic_array",
        "label": "struct Beer4Crypto.Member[]",
        "numberOfBytes": "32"
      },
      "t_bytes32": {
        "encoding": "inplace",
        "label": "bytes32",
        "numberOfBytes": "32"
      },
      "t_mapping(t_address,t_array(t_struct(Group)18_storage)dyn_storage)": {
        "encoding": "mapping",
        "key": "t_address",
        "label": "mapping(address => struct Beer4Crypto.Group[])",
        "numberOfBytes": "32",
        "value": "t_array(t_struct(Group)18_storage)dyn_storage"
      },
      "t_mapping(t_bytes32,t_array(t_struct(Member)23_storage)dyn_storage)": {
        "encoding": "mapping",
        "key": "t_bytes32",
        "label": "mapping(bytes32 => struct Beer4Crypto.Member[])",
        "numberOfBytes": "32",
        "value": "t_array(t_struct(Member)23_storage)dyn_storage"
      },
      "t_string_storage": {
        "encoding": "bytes",
        "label": "string",
        "numberOfBytes": "32"
      },
      "t_struct(Group)18_storage": {
        "encoding": "inplace",
        "label": "struct Beer4Crypto.Group",
        "members": [
          {
            "astId": 15,
            "contract": "contracts/Beer4Crypto.sol:Beer4Crypto",
            "label": "id",
            "offset": 0,
            "slot": "0",
            "type": "t_bytes32"
          },
          {
            "astId": 17,
            "contract": "contracts/Beer4Crypto.sol:Beer4Crypto",
            "label": "name",
            "offset": 0,
            "slot": "1",
            "type": "t_string_storage"
          }
        ],
        "numberOfBytes": "64"
      },
      "t_struct(Member)23_storage": {
        "encoding": "inplace",
        "label": "struct Beer4Crypto.Member",
        "members": [
          {
            "astId": 20,
            "contract": "contracts/Beer4Crypto.sol:Beer4Crypto",
            "label": "memberAddress",
            "offset": 0,
            "slot": "0",
            "type": "t_address"
          },
          {
            "astId": 22,
            "contract": "contracts/Beer4Crypto.sol:Beer4Crypto",
            "label": "nickname",
            "offset": 0,
            "slot": "1",
            "type": "t_string_storage"
          }
        ],
        "numberOfBytes": "64"
      }
    }
  }
}