{
  "address": "0x5FbDB2315678afecb367f032d93F642f64180aa3",
  "abi": [
    {
      "anonymous": false,
      "inputs": [
        {
          "indexed": false,
          "internalType": "string",
          "name": "name",
          "type": "string"
        },
        {
          "indexed": false,
          "internalType": "bytes32",
          "name": "id",
          "type": "bytes32"
        }
      ],
      "name": "GroupCreated",
      "type": "event"
    },
    {
      "inputs": [
        {
          "internalType": "string",
          "name": "groupName",
          "type": "string"
        },
        {
          "internalType": "string",
          "name": "nickname",
          "type": "string"
        }
      ],
      "name": "createGroup",
      "outputs": [],
      "stateMutability": "nonpayable",
      "type": "function"
    },
    {
      "inputs": [
        {
          "internalType": "bytes32",
          "name": "groupId",
          "type": "bytes32"
        },
        {
          "internalType": "address",
          "name": "member",
          "type": "address"
        }
      ],
      "name": "isMember",
      "outputs": [
        {
          "internalType": "bool",
          "name": "",
          "type": "bool"
        }
      ],
      "stateMutability": "view",
      "type": "function"
    },
    {
      "inputs": [
        {
          "internalType": "address",
          "name": "member",
          "type": "address"
        }
      ],
      "name": "listGroupsForMember",
      "outputs": [
        {
          "components": [
            {
              "internalType": "bytes32",
              "name": "id",
              "type": "bytes32"
            },
            {
              "internalType": "string",
              "name": "name",
              "type": "string"
            }
          ],
          "internalType": "struct Beer4Crypto.Group[]",
          "name": "",
          "type": "tuple[]"
        }
      ],
      "stateMutability": "view",
      "type": "function"
    },
    {
      "inputs": [
        {
          "internalType": "bytes32",
          "name": "id",
          "type": "bytes32"
        }
      ],
      "name": "listMembersForGroup",
      "outputs": [
        {
          "components": [
            {
              "internalType": "address",
              "name": "memberAddress",
              "type": "address"
            },
            {
              "internalType": "string",
              "name": "nickname",
              "type": "string"
            }
          ],
          "internalType": "struct Beer4Crypto.Member[]",
          "name": "",
          "type": "tuple[]"
        }
      ],
      "stateMutability": "view",
      "type": "function"
    }
  ],
  "transactionHash": "0x272f8b2ca9ba1dcba831e4830a7587825f52e1663b1e40dedc8a1436c497cdba",
  "args": [],
  "numDeployments": 1,
  "solcInputHash": "c932c1b8637a6245e6a5360f3493fa1a",
  "bytecode": "0x608060405234801561001057600080fd5b50610a40806100206000396000f3fe608060405234801561001057600080fd5b506004361061004c5760003560e01c806310ad56b3146100515780631e4a97dd1461007957806355fbf68a1461008e578063f8b8f340146100ae575b600080fd5b61006461005f36600461059a565b6100ce565b60405190151581526020015b60405180910390f35b61008c610087366004610669565b610240565b005b6100a161009c3660046106cd565b610368565b604051610070919061073f565b6100c16100bc3660046107b3565b610479565b60405161007091906107cc565b60008281526020818152604080832080548251818502810185019093528083528493849084015b828210156101ce576000848152602090819020604080518082019091526002850290910180546001600160a01b03168252600181018054929391929184019161013d9061083b565b80601f01602080910402602001604051908101604052809291908181526020018280546101699061083b565b80156101b65780601f1061018b576101008083540402835291602001916101b6565b820191906000526020600020905b81548152906001019060200180831161019957829003601f168201915b505050505081525050815260200190600101906100f5565b50505050905060005b815181101561023357836001600160a01b03168282815181106101fc576101fc610875565b6020026020010151600001516001600160a01b0316036102215760019250505061023a565b8061022b8161088b565b9150506101d7565b5060009150505b92915050565b600082424340604051602001610258939291906108b2565b60408051601f1981840301815282825280516020918201208383018352808452838201878152835180850185523380825281850189905260009081526001808652958120805480880182559082529490208651600290950201938455905191955092849291908201906102cb9082610928565b505050600083815260208181526040822080546001808201835591845292829020845160029094020180546001600160a01b0319166001600160a01b03909416939093178355908301518392918201906103259082610928565b5050507f50032f83d3694b97a61f9796312b558744e9fb13361854acd23911fdce1f9a9185846040516103599291906109e8565b60405180910390a15050505050565b6001600160a01b0381166000908152600160209081526040808320805482518185028101850190935280835260609492939192909184015b8282101561046e5783829060005260206000209060020201604051806040016040529081600082015481526020016001820180546103dd9061083b565b80601f01602080910402602001604051908101604052809291908181526020018280546104099061083b565b80156104565780601f1061042b57610100808354040283529160200191610456565b820191906000526020600020905b81548152906001019060200180831161043957829003601f168201915b505050505081525050815260200190600101906103a0565b505050509050919050565b600081815260208181526040808320805482518185028101850190935280835260609492939192909184015b8282101561046e576000848152602090819020604080518082019091526002850290910180546001600160a01b0316825260018101805492939192918401916104ed9061083b565b80601f01602080910402602001604051908101604052809291908181526020018280546105199061083b565b80156105665780601f1061053b57610100808354040283529160200191610566565b820191906000526020600020905b81548152906001019060200180831161054957829003601f168201915b505050505081525050815260200190600101906104a5565b80356001600160a01b038116811461059557600080fd5b919050565b600080604083850312156105ad57600080fd5b823591506105bd6020840161057e565b90509250929050565b634e487b7160e01b600052604160045260246000fd5b600082601f8301126105ed57600080fd5b813567ffffffffffffffff80821115610608576106086105c6565b604051601f8301601f19908116603f01168101908282118183101715610630576106306105c6565b8160405283815286602085880101111561064957600080fd5b836020870160208301376000602085830101528094505050505092915050565b6000806040838503121561067c57600080fd5b823567ffffffffffffffff8082111561069457600080fd5b6106a0868387016105dc565b935060208501359150808211156106b657600080fd5b506106c3858286016105dc565b9150509250929050565b6000602082840312156106df57600080fd5b6106e88261057e565b9392505050565b60005b8381101561070a5781810151838201526020016106f2565b50506000910152565b6000815180845261072b8160208601602086016106ef565b601f01601f19169290920160200192915050565b60006020808301818452808551808352604092508286019150828160051b87010184880160005b838110156107a557888303603f1901855281518051845287015187840187905261079287850182610713565b9588019593505090860190600101610766565b509098975050505050505050565b6000602082840312156107c557600080fd5b5035919050565b60006020808301818452808551808352604092508286019150828160051b87010184880160005b838110156107a557888303603f19018552815180516001600160a01b0316845287015187840187905261082887850182610713565b95880195935050908601906001016107f3565b600181811c9082168061084f57607f821691505b60208210810361086f57634e487b7160e01b600052602260045260246000fd5b50919050565b634e487b7160e01b600052603260045260246000fd5b6000600182016108ab57634e487b7160e01b600052601160045260246000fd5b5060010190565b600084516108c48184602089016106ef565b91909101928352506020820152604001919050565b601f82111561092357600081815260208120601f850160051c810160208610156109005750805b601f850160051c820191505b8181101561091f5782815560010161090c565b5050505b505050565b815167ffffffffffffffff811115610942576109426105c6565b61095681610950845461083b565b846108d9565b602080601f83116001811461098b57600084156109735750858301515b600019600386901b1c1916600185901b17855561091f565b600085815260208120601f198616915b828110156109ba5788860151825594840194600190910190840161099b565b50858210156109d85787850151600019600388901b60f8161c191681555b5050505050600190811b01905550565b6040815260006109fb6040830185610713565b9050826020830152939250505056fea2646970667358221220ae7bcd5091ab18db4c1c896736e3dbe9ed6896b6302c882ed6bc9071ade73bc864736f6c63430008130033",
  "devdoc": {
    "kind": "dev",
    "methods": {},
    "version": 1
  },
  "userdoc": {
    "kind": "user",
    "methods": {},
    "version": 1
  },
  "storageLayout": {
    "storage": [
      {
        "astId": 29,
        "contract": "contracts/Beer4Crypto.sol:Beer4Crypto",
        "label": "groupMembers",
        "offset": 0,
        "slot": "0",
        "type": "t_mapping(t_bytes32,t_array(t_struct(Member)23_storage)dyn_storage)"
      },
      {
        "astId": 35,
        "contract": "contracts/Beer4Crypto.sol:Beer4Crypto",
        "label": "memberGroups",
        "offset": 0,
        "slot": "1",
        "type": "t_mapping(t_address,t_array(t_struct(Group)18_storage)dyn_storage)"
      }
    ],
    "types": {
      "t_address": {
        "encoding": "inplace",
        "label": "address",
        "numberOfBytes": "20"
      },
      "t_array(t_struct(Group)18_storage)dyn_storage": {
        "base": "t_struct(Group)18_storage",
        "encoding": "dynamic_array",
        "label": "struct Beer4Crypto.Group[]",
        "numberOfBytes": "32"
      },
      "t_array(t_struct(Member)23_storage)dyn_storage": {
        "base": "t_struct(Member)23_storage",
        "encoding": "dynamic_array",
        "label": "struct Beer4Crypto.Member[]",
        "numberOfBytes": "32"
      },
      "t_bytes32": {
        "encoding": "inplace",
        "label": "bytes32",
        "numberOfBytes": "32"
      },
      "t_mapping(t_address,t_array(t_struct(Group)18_storage)dyn_storage)": {
        "encoding": "mapping",
        "key": "t_address",
        "label": "mapping(address => struct Beer4Crypto.Group[])",
        "numberOfBytes": "32",
        "value": "t_array(t_struct(Group)18_storage)dyn_storage"
      },
      "t_mapping(t_bytes32,t_array(t_struct(Member)23_storage)dyn_storage)": {
        "encoding": "mapping",
        "key": "t_bytes32",
        "label": "mapping(bytes32 => struct Beer4Crypto.Member[])",
        "numberOfBytes": "32",
        "value": "t_array(t_struct(Member)23_storage)dyn_storage"
      },
      "t_string_storage": {
        "encoding": "bytes",
        "label": "string",
        "numberOfBytes": "32"
      },
      "t_struct(Group)18_storage": {
        "encoding": "inplace",
        "label": "struct Beer4Crypto.Group",
        "members": [
          {
            "astId": 15,
            "contract": "contracts/Beer4Crypto.sol:Beer4Crypto",
            "label": "id",
            "offset": 0,
            "slot": "0",
            "type": "t_bytes32"
          },
          {
            "astId": 17,
            "contract": "contracts/Beer4Crypto.sol:Beer4Crypto",
            "label": "name",
            "offset": 0,
            "slot": "1",
            "type": "t_string_storage"
          }
        ],
        "numberOfBytes": "64"
      },
      "t_struct(Member)23_storage": {
        "encoding": "inplace",
        "label": "struct Beer4Crypto.Member",
        "members": [
          {
            "astId": 20,
            "contract": "contracts/Beer4Crypto.sol:Beer4Crypto",
            "label": "memberAddress",
            "offset": 0,
            "slot": "0",
            "type": "t_address"
          },
          {
            "astId": 22,
            "contract": "contracts/Beer4Crypto.sol:Beer4Crypto",
            "label": "nickname",
            "offset": 0,
            "slot": "1",
            "type": "t_string_storage"
          }
        ],
        "numberOfBytes": "64"
      }
    }
  }
}