{
  "address": "0x5FbDB2315678afecb367f032d93F642f64180aa3",
  "abi": [
    {
      "anonymous": false,
      "inputs": [
        {
          "indexed": false,
          "internalType": "string",
          "name": "name",
          "type": "string"
        },
        {
          "indexed": false,
          "internalType": "bytes32",
          "name": "id",
          "type": "bytes32"
        }
      ],
      "name": "GroupCreated",
      "type": "event"
    },
    {
      "inputs": [
        {
          "internalType": "string",
          "name": "groupName",
          "type": "string"
        }
      ],
      "name": "createGroup",
      "outputs": [],
      "stateMutability": "nonpayable",
      "type": "function"
    },
    {
      "inputs": [
        {
          "internalType": "bytes32",
          "name": "groupId",
          "type": "bytes32"
        }
      ],
      "name": "getGroup",
      "outputs": [
        {
          "components": [
            {
              "internalType": "bytes32",
              "name": "id",
              "type": "bytes32"
            },
            {
              "internalType": "string",
              "name": "name",
              "type": "string"
            }
          ],
          "internalType": "struct Beer4Crypto.Group",
          "name": "",
          "type": "tuple"
        }
      ],
      "stateMutability": "view",
      "type": "function"
    },
    {
      "inputs": [
        {
          "internalType": "bytes32",
          "name": "groupId",
          "type": "bytes32"
        },
        {
          "internalType": "address",
          "name": "member",
          "type": "address"
        }
      ],
      "name": "isMember",
      "outputs": [
        {
          "internalType": "bool",
          "name": "",
          "type": "bool"
        }
      ],
      "stateMutability": "view",
      "type": "function"
    },
    {
      "inputs": [
        {
          "internalType": "address",
          "name": "member",
          "type": "address"
        }
      ],
      "name": "listGroupsForMember",
      "outputs": [
        {
          "components": [
            {
              "internalType": "bytes32",
              "name": "id",
              "type": "bytes32"
            },
            {
              "internalType": "string",
              "name": "name",
              "type": "string"
            }
          ],
          "internalType": "struct Beer4Crypto.Group[]",
          "name": "",
          "type": "tuple[]"
        }
      ],
      "stateMutability": "view",
      "type": "function"
    }
  ],
  "transactionHash": "0xf201db0845f79db5129b57410f7c4b743b4f83767800b29530a5d25debde9fc9",
  "args": [],
  "numDeployments": 1,
  "solcInputHash": "3f4fa81192d4bfd0b899f86bb9a9d8d1",
  "bytecode": "0x608060405234801561001057600080fd5b506107c8806100206000396000f3fe608060405234801561001057600080fd5b506004361061004c5760003560e01c806310ad56b31461005157806355fbf68a1461009f578063b567d4ba146100bf578063dc2ddcae146100df575b600080fd5b61008a61005f3660046103e6565b60009182526001602090815260408084206001600160a01b0393909316845291905290205460ff1690565b60405190151581526020015b60405180910390f35b6100b26100ad366004610412565b6100f4565b60405161009691906104ab565b6100d26100cd36600461050d565b610205565b6040516100969190610526565b6100f26100ed36600461054f565b6102d3565b005b6001600160a01b0381166000908152600260209081526040808320805482518185028101850190935280835260609492939192909184015b828210156101fa57838290600052602060002090600202016040518060400160405290816000820154815260200160018201805461016990610600565b80601f016020809104026020016040519081016040528092919081815260200182805461019590610600565b80156101e25780601f106101b7576101008083540402835291602001916101e2565b820191906000526020600020905b8154815290600101906020018083116101c557829003601f168201915b5050505050815250508152602001906001019061012c565b505050509050919050565b60408051808201909152600081526060602082015260008281526020818152604091829020825180840190935280548352600181018054919284019161024a90610600565b80601f016020809104026020016040519081016040528092919081815260200182805461027690610600565b80156102c35780601f10610298576101008083540402835291602001916102c3565b820191906000526020600020905b8154815290600101906020018083116102a657829003601f168201915b5050505050815250509050919050565b6000814243406040516020016102eb9392919061063a565b60408051601f19818403018152918152815160209283012060008181529283905291208181559091506001810161032284826106b0565b5060008281526001602081815260408084203385528252808420805460ff19168417905560028083528185208251808401909352878352828401898152815480870183559187529390952082519590910201938455905190929182019061038990826106b0565b5050507f50032f83d3694b97a61f9796312b558744e9fb13361854acd23911fdce1f9a9183836040516103bd929190610770565b60405180910390a1505050565b80356001600160a01b03811681146103e157600080fd5b919050565b600080604083850312156103f957600080fd5b82359150610409602084016103ca565b90509250929050565b60006020828403121561042457600080fd5b61042d826103ca565b9392505050565b60005b8381101561044f578181015183820152602001610437565b50506000910152565b60008151808452610470816020860160208601610434565b601f01601f19169290920160200192915050565b8051825260006020820151604060208501526104a36040850182610458565b949350505050565b6000602080830181845280855180835260408601915060408160051b870101925083870160005b8281101561050057603f198886030184526104ee858351610484565b945092850192908501906001016104d2565b5092979650505050505050565b60006020828403121561051f57600080fd5b5035919050565b60208152600061042d6020830184610484565b634e487b7160e01b600052604160045260246000fd5b60006020828403121561056157600080fd5b813567ffffffffffffffff8082111561057957600080fd5b818401915084601f83011261058d57600080fd5b81358181111561059f5761059f610539565b604051601f8201601f19908116603f011681019083821181831017156105c7576105c7610539565b816040528281528760208487010111156105e057600080fd5b826020860160208301376000928101602001929092525095945050505050565b600181811c9082168061061457607f821691505b60208210810361063457634e487b7160e01b600052602260045260246000fd5b50919050565b6000845161064c818460208901610434565b91909101928352506020820152604001919050565b601f8211156106ab57600081815260208120601f850160051c810160208610156106885750805b601f850160051c820191505b818110156106a757828155600101610694565b5050505b505050565b815167ffffffffffffffff8111156106ca576106ca610539565b6106de816106d88454610600565b84610661565b602080601f83116001811461071357600084156106fb5750858301515b600019600386901b1c1916600185901b1785556106a7565b600085815260208120601f198616915b8281101561074257888601518255948401946001909101908401610723565b50858210156107605787850151600019600388901b60f8161c191681555b5050505050600190811b01905550565b6040815260006107836040830185610458565b9050826020830152939250505056fea2646970667358221220071b0c3ba068709c67d6ba85737d07b032bb3767b25cfcc89afb908e2ff558e564736f6c63430008130033",
  "devdoc": {
    "kind": "dev",
    "methods": {},
    "version": 1
  },
  "userdoc": {
    "kind": "user",
    "methods": {},
    "version": 1
  },
  "storageLayout": {
    "storage": [
      {
        "astId": 73,
        "contract": "contracts/Beer4Crypto.sol:Beer4Crypto",
        "label": "groups",
        "offset": 0,
        "slot": "0",
        "type": "t_mapping(t_bytes32,t_struct(Group)63_storage)"
      },
      {
        "astId": 79,
        "contract": "contracts/Beer4Crypto.sol:Beer4Crypto",
        "label": "groupMembers",
        "offset": 0,
        "slot": "1",
        "type": "t_mapping(t_bytes32,t_mapping(t_address,t_bool))"
      },
      {
        "astId": 85,
        "contract": "contracts/Beer4Crypto.sol:Beer4Crypto",
        "label": "memberGroups",
        "offset": 0,
        "slot": "2",
        "type": "t_mapping(t_address,t_array(t_struct(Group)63_storage)dyn_storage)"
      }
    ],
    "types": {
      "t_address": {
        "encoding": "inplace",
        "label": "address",
        "numberOfBytes": "20"
      },
      "t_array(t_struct(Group)63_storage)dyn_storage": {
        "base": "t_struct(Group)63_storage",
        "encoding": "dynamic_array",
        "label": "struct Beer4Crypto.Group[]",
        "numberOfBytes": "32"
      },
      "t_bool": {
        "encoding": "inplace",
        "label": "bool",
        "numberOfBytes": "1"
      },
      "t_bytes32": {
        "encoding": "inplace",
        "label": "bytes32",
        "numberOfBytes": "32"
      },
      "t_mapping(t_address,t_array(t_struct(Group)63_storage)dyn_storage)": {
        "encoding": "mapping",
        "key": "t_address",
        "label": "mapping(address => struct Beer4Crypto.Group[])",
        "numberOfBytes": "32",
        "value": "t_array(t_struct(Group)63_storage)dyn_storage"
      },
      "t_mapping(t_address,t_bool)": {
        "encoding": "mapping",
        "key": "t_address",
        "label": "mapping(address => bool)",
        "numberOfBytes": "32",
        "value": "t_bool"
      },
      "t_mapping(t_bytes32,t_mapping(t_address,t_bool))": {
        "encoding": "mapping",
        "key": "t_bytes32",
        "label": "mapping(bytes32 => mapping(address => bool))",
        "numberOfBytes": "32",
        "value": "t_mapping(t_address,t_bool)"
      },
      "t_mapping(t_bytes32,t_struct(Group)63_storage)": {
        "encoding": "mapping",
        "key": "t_bytes32",
        "label": "mapping(bytes32 => struct Beer4Crypto.Group)",
        "numberOfBytes": "32",
        "value": "t_struct(Group)63_storage"
      },
      "t_string_storage": {
        "encoding": "bytes",
        "label": "string",
        "numberOfBytes": "32"
      },
      "t_struct(Group)63_storage": {
        "encoding": "inplace",
        "label": "struct Beer4Crypto.Group",
        "members": [
          {
            "astId": 60,
            "contract": "contracts/Beer4Crypto.sol:Beer4Crypto",
            "label": "id",
            "offset": 0,
            "slot": "0",
            "type": "t_bytes32"
          },
          {
            "astId": 62,
            "contract": "contracts/Beer4Crypto.sol:Beer4Crypto",
            "label": "name",
            "offset": 0,
            "slot": "1",
            "type": "t_string_storage"
          }
        ],
        "numberOfBytes": "64"
      }
    }
  }
}