{
  "address": "0x5FbDB2315678afecb367f032d93F642f64180aa3",
  "abi": [
    {
      "anonymous": false,
      "inputs": [
        {
          "indexed": false,
          "internalType": "string",
          "name": "name",
          "type": "string"
        },
        {
          "indexed": false,
          "internalType": "bytes32",
          "name": "id",
          "type": "bytes32"
        }
      ],
      "name": "GroupCreated",
      "type": "event"
    },
    {
      "inputs": [
        {
          "internalType": "string",
          "name": "groupName",
          "type": "string"
        }
      ],
      "name": "createGroup",
      "outputs": [],
      "stateMutability": "nonpayable",
      "type": "function"
    },
    {
      "inputs": [
        {
          "internalType": "bytes32",
          "name": "groupId",
          "type": "bytes32"
        }
      ],
      "name": "getGroupName",
      "outputs": [
        {
          "internalType": "string",
          "name": "",
          "type": "string"
        }
      ],
      "stateMutability": "view",
      "type": "function"
    },
    {
      "inputs": [
        {
          "internalType": "bytes32",
          "name": "groupId",
          "type": "bytes32"
        },
        {
          "internalType": "address",
          "name": "member",
          "type": "address"
        }
      ],
      "name": "isMember",
      "outputs": [
        {
          "internalType": "bool",
          "name": "",
          "type": "bool"
        }
      ],
      "stateMutability": "view",
      "type": "function"
    }
  ],
  "transactionHash": "0x28e1f7469e2a5103988e422972fb78d080a10e3f319328c9a98b07c61190f5df",
  "args": [],
  "numDeployments": 1,
  "solcInputHash": "b3aa7cb1c1ea639c43c28a7635406650",
  "bytecode": "0x608060405234801561001057600080fd5b5061056d806100206000396000f3fe608060405234801561001057600080fd5b50600436106100415760003560e01c8063091977df1461004657806310ad56b31461006f578063dc2ddcae146100ba575b600080fd5b61005961005436600461021f565b6100cf565b6040516100669190610288565b60405180910390f35b6100aa61007d3660046102a2565b6000828152602081815260408083206001600160a01b038516845260020190915290205460ff1692915050565b6040519015158152602001610066565b6100cd6100c83660046102f4565b610174565b005b60008181526020819052604090206001018054606091906100ef906103a5565b80601f016020809104026020016040519081016040528092919081815260200182805461011b906103a5565b80156101685780601f1061013d57610100808354040283529160200191610168565b820191906000526020600020905b81548152906001019060200180831161014b57829003601f168201915b50505050509050919050565b60008142434060405160200161018c939291906103df565b60408051601f1981840301815291815281516020928301206000818152928390529120818155909150600181016101c38482610455565b5033600090815260028201602052604090819020805460ff19166001179055517f50032f83d3694b97a61f9796312b558744e9fb13361854acd23911fdce1f9a91906102129085908590610515565b60405180910390a1505050565b60006020828403121561023157600080fd5b5035919050565b60005b8381101561025357818101518382015260200161023b565b50506000910152565b60008151808452610274816020860160208601610238565b601f01601f19169290920160200192915050565b60208152600061029b602083018461025c565b9392505050565b600080604083850312156102b557600080fd5b8235915060208301356001600160a01b03811681146102d357600080fd5b809150509250929050565b634e487b7160e01b600052604160045260246000fd5b60006020828403121561030657600080fd5b813567ffffffffffffffff8082111561031e57600080fd5b818401915084601f83011261033257600080fd5b813581811115610344576103446102de565b604051601f8201601f19908116603f0116810190838211818310171561036c5761036c6102de565b8160405282815287602084870101111561038557600080fd5b826020860160208301376000928101602001929092525095945050505050565b600181811c908216806103b957607f821691505b6020821081036103d957634e487b7160e01b600052602260045260246000fd5b50919050565b600084516103f1818460208901610238565b91909101928352506020820152604001919050565b601f82111561045057600081815260208120601f850160051c8101602086101561042d5750805b601f850160051c820191505b8181101561044c57828155600101610439565b5050505b505050565b815167ffffffffffffffff81111561046f5761046f6102de565b6104838161047d84546103a5565b84610406565b602080601f8311600181146104b857600084156104a05750858301515b600019600386901b1c1916600185901b17855561044c565b600085815260208120601f198616915b828110156104e7578886015182559484019460019091019084016104c8565b50858210156105055787850151600019600388901b60f8161c191681555b5050505050600190811b01905550565b604081526000610528604083018561025c565b9050826020830152939250505056fea2646970667358221220df076738530fe616856f3590c34ff1c371847d80182cbdd95f259eb968fd265764736f6c63430008130033",
  "devdoc": {
    "kind": "dev",
    "methods": {},
    "version": 1
  },
  "userdoc": {
    "kind": "user",
    "methods": {},
    "version": 1
  },
  "storageLayout": {
    "storage": [
      {
        "astId": 70,
        "contract": "contracts/Beer4Crypto.sol:Beer4Crypto",
        "label": "groups",
        "offset": 0,
        "slot": "0",
        "type": "t_mapping(t_bytes32,t_struct(Group)83_storage)"
      }
    ],
    "types": {
      "t_address": {
        "encoding": "inplace",
        "label": "address",
        "numberOfBytes": "20"
      },
      "t_array(t_address)dyn_storage": {
        "base": "t_address",
        "encoding": "dynamic_array",
        "label": "address[]",
        "numberOfBytes": "32"
      },
      "t_array(t_struct(Bet)65_storage)dyn_storage": {
        "base": "t_struct(Bet)65_storage",
        "encoding": "dynamic_array",
        "label": "struct Beer4Crypto.Bet[]",
        "numberOfBytes": "32"
      },
      "t_bool": {
        "encoding": "inplace",
        "label": "bool",
        "numberOfBytes": "1"
      },
      "t_bytes32": {
        "encoding": "inplace",
        "label": "bytes32",
        "numberOfBytes": "32"
      },
      "t_mapping(t_address,t_bool)": {
        "encoding": "mapping",
        "key": "t_address",
        "label": "mapping(address => bool)",
        "numberOfBytes": "32",
        "value": "t_bool"
      },
      "t_mapping(t_address,t_uint256)": {
        "encoding": "mapping",
        "key": "t_address",
        "label": "mapping(address => uint256)",
        "numberOfBytes": "32",
        "value": "t_uint256"
      },
      "t_mapping(t_bytes32,t_struct(Group)83_storage)": {
        "encoding": "mapping",
        "key": "t_bytes32",
        "label": "mapping(bytes32 => struct Beer4Crypto.Group)",
        "numberOfBytes": "32",
        "value": "t_struct(Group)83_storage"
      },
      "t_string_storage": {
        "encoding": "bytes",
        "label": "string",
        "numberOfBytes": "32"
      },
      "t_struct(Bet)65_storage": {
        "encoding": "inplace",
        "label": "struct Beer4Crypto.Bet",
        "members": [
          {
            "astId": 51,
            "contract": "contracts/Beer4Crypto.sol:Beer4Crypto",
            "label": "creator",
            "offset": 0,
            "slot": "0",
            "type": "t_address"
          },
          {
            "astId": 53,
            "contract": "contracts/Beer4Crypto.sol:Beer4Crypto",
            "label": "closingDate",
            "offset": 0,
            "slot": "1",
            "type": "t_uint256"
          },
          {
            "astId": 55,
            "contract": "contracts/Beer4Crypto.sol:Beer4Crypto",
            "label": "deposit",
            "offset": 0,
            "slot": "2",
            "type": "t_uint256"
          },
          {
            "astId": 57,
            "contract": "contracts/Beer4Crypto.sol:Beer4Crypto",
            "label": "ended",
            "offset": 0,
            "slot": "3",
            "type": "t_bool"
          },
          {
            "astId": 61,
            "contract": "contracts/Beer4Crypto.sol:Beer4Crypto",
            "label": "predictions",
            "offset": 0,
            "slot": "4",
            "type": "t_mapping(t_address,t_uint256)"
          },
          {
            "astId": 64,
            "contract": "contracts/Beer4Crypto.sol:Beer4Crypto",
            "label": "participants",
            "offset": 0,
            "slot": "5",
            "type": "t_array(t_address)dyn_storage"
          }
        ],
        "numberOfBytes": "192"
      },
      "t_struct(Group)83_storage": {
        "encoding": "inplace",
        "label": "struct Beer4Crypto.Group",
        "members": [
          {
            "astId": 72,
            "contract": "contracts/Beer4Crypto.sol:Beer4Crypto",
            "label": "id",
            "offset": 0,
            "slot": "0",
            "type": "t_bytes32"
          },
          {
            "astId": 74,
            "contract": "contracts/Beer4Crypto.sol:Beer4Crypto",
            "label": "name",
            "offset": 0,
            "slot": "1",
            "type": "t_string_storage"
          },
          {
            "astId": 78,
            "contract": "contracts/Beer4Crypto.sol:Beer4Crypto",
            "label": "members",
            "offset": 0,
            "slot": "2",
            "type": "t_mapping(t_address,t_bool)"
          },
          {
            "astId": 82,
            "contract": "contracts/Beer4Crypto.sol:Beer4Crypto",
            "label": "bets",
            "offset": 0,
            "slot": "3",
            "type": "t_array(t_struct(Bet)65_storage)dyn_storage"
          }
        ],
        "numberOfBytes": "128"
      },
      "t_uint256": {
        "encoding": "inplace",
        "label": "uint256",
        "numberOfBytes": "32"
      }
    }
  }
}